:100000000C942A000C94B1020C94B1020C94B1022D
:100010000C94B1020C94B1020C94B1020C94B10294
:100020000C94B1020C94B1020C94B1020C94B10284
:100030000C94B1020C94B1020C94B1020C94B10274
:100040000C94B1020C94B1020C94B1020C94B10264
:100050000C94B10211241FBECFE5D8E0DEBFCDBFA6
:0C0060000E94E8010C943400F894FFCFDB
:10006C000E94840258F00E947D0240F029F45F3F08
:10007C0029F00C94980251110C948C020C94AE0241
:10008C000E94760168F39923B1F3552391F3951BE4
:10009C00550BBB27AA2762177307840738F09F5F9D
:1000AC005F4F220F331F441FAA1FA9F335D00E2E0A
:1000BC003AF0E0E832D091505040E695001CCAF777
:1000CC002BD0FE2F29D0660F771F881FBB1F26173A
:1000DC0037074807AB07B0E809F0BB0B802DBF0111
:1000EC00FF2793585F4F3AF09E3F510578F00C94E0
:1000FC0098020C948C025F3FE4F3983ED4F38695FF
:10010C0077956795B795F7959F5FC9F7880F911D00
:10011C009695879597F90895E1E0660F771F881FEC
:10012C00BB1F621773078407BA0720F0621B730B9F
:0C013C00840BBA0BEE1F88F7E0950895C5
:100148000E947D0238F00E94840220F039F49F3F1B
:1001580019F426F40C94AE020EF4E095E7FB0C9427
:100168009802E92F0E94760158F3BA1762077307BD
:100178008407950720F079F4A6F50C948B020EF409
:10018800E0950B2EBA2FA02D0B01B90190010C019F
:10019800CA01A0011124FF27591B99F0593F50F4B7
:1001A800503E68F11A16F040A22F232F342F44270F
:1001B800585FF3CF469537952795A795F040539507
:1001C800C9F77EF41F16BA0B620B730B840BBAF0D7
:1001D8009150A1F0FF0FBB1F661F771F881FC2F742
:1001E8000EC0BA0F621F731F841F48F48795779556
:1001F8006795B795F7959E3F08F0B0CF9395880F10
:0C02080008F09927EE0F97958795089550
:10021400E89409C097FB3EF490958095709561959C
:100224007F4F8F4F9F4F9923A9F0F92F96E9BB2752
:100234009395F695879577956795B795F111F8CFCE
:10024400FAF4BB0F11F460FF1BC06F5F7F4F8F4F39
:100254009F4F16C0882311F096E911C0772321F02F
:100264009EE8872F762F05C0662371F096E8862FC7
:1002740070E060E02AF09A95660F771F881FDAF71E
:0A028400880F9695879597F9089565
:10028E000E947E0188F09F5798F0B92F9927B75199
:10029E00B0F0E1F0660F771F881F991F1AF0BA951C
:1002AE00C9F714C0B13091F00E948B02B1E00895ED
:1002BE000C948B02672F782F8827B85F39F0B93FDF
:1002CE00CCF3869577956795B395D9F73EF49095CF
:0E02DE008095709561957F4F8F4F9F4F0895CB
:1002EC0057FD9058440F551F59F05F3F71F04795DB
:1002FC00880F97FB991F61F09F3F79F087950895C0
:10030C00121613061406551FF2CF4695F1DF08C0DE
:10031C00161617061806991FF1CF869571056105FB
:04032C000894089594
:10033000CF93DF93CDB7DEB72B970FB6F894DEBF20
:100340000FBECDBF4AE0BE016F5F7F4F0E945602D5
:10035000CE0101960E9447022B960FB6F894DEBF9D
:0A0360000FBECDBFDF91CF910895CD
:10036A00BB27FB015527AA27880F991FAA1FA41785
:10037A0010F0A41B83955051B9F7A05DAA3308F079
:10038A00A95DA193009779F7B111B1931192CB01AD
:04039A000C94370286
:10039E00BC01990F880B990B0E940C019B01AC01BB
:1003AE0060E074E284E799E40E94A70220E030E066
:1003BE0040E85FE30E946F020E94760269B970BD49
:0203CE00089590
:1003D00080E895E20E94920247E050E063E070E01E
:1003E00081E090E00E9400020E94B5020E94AB02F0
:1003F0000E949E020E9498018DE00E94A302F4CF09
:100400000F931F93CF93DF93EB018A010E94610248
:10041000C8010E946802CE010E9415020E94B30228
:0A042000DF91CF911F910F91089515
:10042A009C0197B19F7397B92130310521F0233090
:10043A00310519F008953E9A089587B1806C87B9FD
:02044A00089513
:10044C00092E0394000C11F4882352F0BB0F40F4D6
:10045C00BF2B11F460FF04C06F5F7F4F8F4F9F4F16
:02046C000895F1
:10046E00DC01FC01672F71917723E1F7329704C00D
:10047E007C916D9370836291AE17BF07C8F3089598
:10048E00CF93DF93EC018881882331F021960E946F
:0E049E00A30289918111FBCFDF91CF910895C8
:1004AC00BB274A3031F4992322F4BDE29095819513
:0604BC009F4F0C94B601F5
:0E04C20097B1907E97B997B1892B87B90895AD
:0E04D00096B1987F96B996B1892B86B908959A
:0E04DE005058BB27AA270E94B5000C94260296
:0E04EC000E9447016894B1110C948C0208958F
:0E04FA0000240A94161617061806090608951F
:0E05080000240A941216130614060506089520
:0E051600E894BB2766277727CB0197F9089555
:0C0524002AB128612AB90E94CF01089575
:0C05300097F99F6780E870E060E0089594
:0A053C0084B125B190E0922B0895E0
:080546005D9BFECF8CB9089506
:08054E000E9446000C942602F5
:06055600349BFECF089566
:06055C009FEF80EC089502
:040562000C940000F5
:04056600379A089523
:04056A00369A089520
:00000001FF
